:020000040000FA
:0400000063EF2FF08B
:105D1E001200080ED56ED58E12003EC001F03FC0A7
:105D2E0002F0120000E20400306631303001F2A4BD
:105D3E00A3EF2EF0A5EF2EF09EEF2EF01200949210
:105D4E00030ECA12CA840C0EBA6E000E106E640ECA
:105D5E000F6EE2EC2EF012000E6E000E0B6E000EA9
:105D6E000A6E0E508BEC30F0000E026E020E016EBB
:105D7E0032EC2FF012000E6E000E0B6E010E0A6E3C
:105D8E000E508BEC30F0000E026E500E016E8FEC4A
:105D9E002EF01200D8900134036E0234046E031EEE
:105DAE00041E320E035E000E045A0450D76E03C05A
:105DBE00D6FFF2941200480E016EE80E026E010E2E
:105DCE00036E000E046E0FC005F010C006F0076AD9
:105DDE00086A6DEC35F00104CB6E12000C6E0CC02F
:105DEE0007F0086AE2EC2FF0000E026E1D0E016E37
:105DFE000AC003F00BC004F0ADEC3AF09DEC2FF0AE
:105E0E001200000E026E080E016E000E046E010EE0
:105E1E00036EADEC3AF0000E026E080E016E000E2F
:105E2E00046E000E036EADEC3AF01200000E026E20
:105E3E001F0E016E000E046E010E036EADEC3AF0F5
:105E4E00000E026E1F0E016E000E046E000E036E2B
:105E5E00ADEC3AF01200000E056E000E046E3AEF35
:105E6E002FF0044A052A0150045C0550800A036E87
:105E7E000250800A0358D8A047EF2FF049EF2FF0B9
:105E8E0038EF2FF012007EEC2FF0000E026E0A0E8D
:105E9E00016E000E046E010E036ED4EC3BF0000E8C
:105EAE00026E090E016E000E046E010E036ED4EC2E
:105EBE003BF00C0EC16E1200320EF66E5D0EF76EDA
:105ECE00000EF86E00EE4AF010EE0AF00900F5CF63
:105EDE00EEFFE550E150FAE100EE2AF0200EEE6AF8
:105EEE00E806FDE1000EF86E000101EF34F0000E41
:105EFE00026E1F0E016E000E046E000E036ED4ECC9
:105F0E003BF0000E026E080E016E000E046E000EC7
:105F1E00036ED4EC3BF0000E026E1E0E016E000EF0
:105F2E00046E000E036ED4EC3BF01200000E026EF7
:105F3E001C0E016E000E046E010E036EADEC3AF0F7
:105F4E00000E026E050E016E8FEC2EF0000E026E2C
:105F5E001C0E016E000E046E000E036EADEC3AF0D8
:105F6E00000E026E050E016E8FEC2EF01200000E6A
:105F7E00026E000E016E000E046E010E036ED4EC66
:105F8E003BF0000E026E010E016E000E046E010E4D
:105F9E00036ED4EC3BF0000E026E020E016E000E8C
:105FAE00046E010E036ED4EC3BF0C2800C0EC16E7B
:105FBE00AA0EC06E1200000E026E080E016E000ECA
:105FCE00046E000E036EADEC3AF0000E096E000E7C
:105FDE00026E1E0E016E800E0714036E046AADEC87
:105FEE003AF008EC2FF0D89007360836092A070E3B
:105FFE00096404EF30F006EF30F0EEEF2FF01DECF9
:10600E002FF01200000E146E000E136E1FEF30F004
:10601E0013500F24116E14501020126E11C0F6FF83
:10602E0012C0F7FF0800F550C2EC2EF0134A142AE6
:10603E0013500F24116E14501020126E11C0F6FF63
:10604E0012C0F7FF0800F5500009D8A431EF30F068
:10605E0033EF30F00FEF30F01200000E026E180E1C
:10606E00016E000E046E000E036ED4EC3BF0000EBB
:10607E00026E190E016E000E046E000E036ED4EC4D
:10608E003BF0000E026E1A0E016E000E046E000E34
:10609E00036ED4EC3BF0000E026E1B0E016E000E72
:1060AE00046E000E036ED4EC3BF07EEC2FF012006B
:1060BE00186E1750D8A466EF30F068EF30F06AEF24
:1060CE0030F018C047F01704D8A470EF30F072EF1C
:1060DE0030F074EF30F018C046F0020E1718D8A446
:1060EE007BEF30F07DEF30F07FEF30F018C045F0F1
:1060FE00030E1718D8A486EF30F088EF30F08AEF31
:10610E0030F018C044F012000D6E0DC00CF00C3AB9
:10611E000F0E0C160C50076E086AE2EC2FF0000EF4
:10612E00026E1D0E016E0AC003F00BC004F0ADEC42
:10613E003AF09DEC2FF00DC00CF00F0E0C160C501B
:10614E00076E086AE2EC2FF0000E026E1D0E016E55
:10615E000AC003F00BC004F0ADEC3AF09DEC2FF04A
:10616E001200270E126E100E116EE4EF30F011C0F9
:10617E0003F012C004F00FC001F010C002F09FEC4B
:10618E0033F001C009F002C00AF0000E0C6E0A0EC8
:10619E000B6EEDEC32F00950300FC2EC2EF011C048
:1061AE0001F012C002F0000E046E0A0E036E9FEC98
:1061BE0033F001C011F002C012F012BEF1EF30F058
:1061CE00125006E11104D8B0EFEF30F0F1EF30F0DD
:1061DE00BEEF30F01200000E056E000E046E04C00D
:1061EE0001F0010E026E000E036E012A02EF31F075
:1061FE00D89002360336012EFFEF30F03E500216D5
:10620E003F50031602500310D8B410EF31F012EFC6
:10621E0031F01CEF31F0EB0E0424F66E7E0E0520ED
:10622E00F76E0800F5502DEF31F0044A052A05BE31
:10623E002AEF31F0055009E10A0E045CD8A02AEFCE
:10624E0031F02CEF31F0F6EF30F0000E120094EC3E
:10625E002EF04050011809E141500218D8B43AEF1F
:10626E0031F03CEF31F06BEF31F094EC2EF001C0D9
:10627E0040F002C041F055EF31F0FBEC3CF06BEF1B
:10628E0031F0310E4E18D8A44FEF31F051EF31F0FE
:10629E006BEF31F0300E4E6E6BEF31F0F2EC30F002
:1062AE00256E266A2650000AD8B460EF31F06BEFE7
:1062BE0031F02550530AD8B444EF31F0200AD8B447
:1062CE0048EF31F06BEF31F012008AEF31F069ECEC
:1062DE0034F0ACEF31F0000E166E000E156E0BECB6
:1062EE0039F0ACEF31F0F3EC35F0ACEF31F07CEC93
:1062FE0036F0ACEF31F0000E166E000E156EDCECC3
:10630E0039F0ACEF31F01BC01DF01CC01EF01E505A
:10631E00000AD8B495EF31F0ACEF31F01D50000A01
:10632E00D8B46EEF31F0010AD8B472EF31F0030A2F
:10633E00D8B47AEF31F0010AD8B47EEF31F0070A03
:10634E00D8B482EF31F0ACEF31F0120012501310CE
:10635E0014101510D8B4B6EF31F0B8EF31F0E8EFF5
:10636E0031F0010E166EC2EF31F0D89012361336A0
:10637E0014361536162A15AEC7EF31F0C9EF31F0C7
:10638E00BCEF31F012500E5C13500F5814501058D1
:10639E0015501158D8A0D6EF31F0D8EF31F0E0EF0C
:1063AE0031F012500E5E13500F5A1450105A1550F1
:1063BE00115AD8901532143213321232162EC9EFEA
:1063CE0031F00EC00EF00FC00FF010C010F011C063
:1063DE0011F01200000E096E000E0A6E000E0B6E0A
:1063EE00000E0C6E0550061007100810D8B402EF00
:1063FE0032F004EF32F03AEF32F0010E0D6E0EEF86
:10640E0032F0D89005360636073608360D2A08AE15
:10641E0013EF32F015EF32F008EF32F0D890093664
:10642E000A360B360C360550015C065002580750E2
:10643E00035808500458D8A027EF32F029EF32F055
:10644E0032EF32F00550015E0650025A0750035AE1
:10645E000850045A0980D8900832073206320532A5
:10646E000D2E15EF32F009C001F00AC002F00BC07C
:10647E0003F00CC004F01200000E0114096E000EA1
:10648E0002140A6E800E03140B6E7F0E04140C6E33
:10649E0009500A100B100C10D8A458EF32F05AEF16
:1064AE0032F062EF32F0000E016E000E026E000E40
:1064BE00036E000E046E000E0514096E000E061417
:1064CE000A6E800E07140B6E7F0E08140C6E0950A8
:1064DE000A100B100C10D8A477EF32F079EF32F0CF
:1064EE0081EF32F0000E056E000E066E000E076E86
:1064FE00000E086E055001180FE1065002180CE14F
:10650E000750031809E108500418D8B491EF32F07F
:10651E0093EF32F096EF32F0D89097EF32F0D880BA
:10652E0012004AC001F04BC002F04CC003F04DC047
:10653E0004F0700E056E170E066E000E076E000E3E
:10654E00086EF1EC31F001C015F002C016F003C078
:10655E0017F004C018F02AC001F02BC002F02CC0B6
:10656E0003F02DC004F0700E056E170E066E000EB1
:10657E00076E000E086EF1EC31F0015015180DE1AA
:10658E00025016180AE10350171807E104501818A4
:10659E00D8A4D4EF32F0D6EF32F0EAEF32F0300E6C
:1065AE005218D8A4DDEF32F0DFEF32F0ECEF32F01C
:1065BE00010EB3EC2EF0020E106E580E0F6EE2ECC2
:1065CE002EF0ECEF32F0300E526E1200000E0E6E08
:1065DE000ABEF6EF32F0F4EF32F0FCEF32F0096C57
:1065EE000A1ED8B00A2A010E0E6E0CBE03EF33F04F
:1065FE0001EF33F007EF33F00B6C0C1ED8B00C2A02
:10660E000B500C10D8B40EEF33F010EF33F034EF14
:10661E0033F0010E0D6E18EF33F0D8900B360C36AA
:10662E000D2A0CAE1DEF33F01FEF33F014EF33F0E5
:10663E000B50095C0C500A58D8A028EF33F02AEF03
:10664E0033F02EEF33F00B50095E0C500A5AD890EF
:10665E000C320B320D2E1FEF33F00E50D8B43AEF32
:10666E0033F03CEF33F040EF33F0096C0A1ED8B034
:10667E000A2A09C009F00AC00AF01200000E026EC2
:10668E001C0E016E000E046E000E036ED4EC3BF079
:10669E00000E026E1D0E016E000E046E000E036ED5
:1066AE00D4EC3BF07EEC2FF0000E026E0F0E016E5E
:1066BE0032EC2FF0000E0B6E000E0A6E030EF5EC90
:1066CE002EF0000E026E050E016E32EC2FF0000E53
:1066DE000B6E000E0A6E030EF5EC2EF0000E026E1F
:1066EE00A00E016E8FEC2EF0000E0B6E000E0A6ED9
:1066FE00030EF5EC2EF0000E026EA00E016E8FEC66
:10670E002EF0000E0B6E000E0A6E020EF5EC2EF041
:10671E00000E026E0A0E016E32EC2FF0280EB3EC54
:10672E002EF00C0EB3EC2EF0010EB3EC2EF0120088
:10673E00000E066E04BEA8EF33F0A6EF33F0AEEFF8
:10674E0033F0036C041ED8B0042A010E066E02BE8E
:10675E00B5EF33F0B3EF33F0BBEF33F0016C021E45
:10676E00D8B0022A010E061A000E086E000E076E31
:10677E0003500410D8B4C6EF33F0C8EF33F0F0EF87
:10678E0033F0010E056ED0EF33F0D8900336043699
:10679E00052A04AED5EF33F0D7EF33F0CCEF33F05C
:1067AE00D890073608360350015C04500258D8A022
:1067BE00E3EF33F0E5EF33F0EAEF33F00350015E31
:1067CE000450025A0780D89004320332052ED7EFB8
:1067DE0033F00650D8B4F6EF33F0F8EF33F0FCEFA9
:1067EE0033F0076C081ED8B0082A07C001F008C0A5
:1067FE0002F01200A6EC2EF034EC30F0BEEC2FF0CE
:10680E0090EC2EF04AEC2FF045EC33F0000E176EA4
:10681E00000E5FEC30F0010E176E000E5FEC30F0E4
:10682E00020E176E000E5FEC30F0030E176E000EA8
:10683E005FEC30F0010EB3EC2EF0130E026E880EEC
:10684E00016ED1EC2EF055EC38F046EF34F02EEC14
:10685E0031F0010E296E63EF34F098EC32F0020E37
:10686E00296E63EF34F005EC37F0030E296E63EFFB
:10687E0034F027EC3EF0000E296E63EF34F0295011
:10688E00276E286A2850000AD8B450EF34F042EF31
:10689E0034F02750000AD8B42EEF34F0010AD8B4E1
:1068AE0034EF34F0030AD8B43AEF34F0010AD8B416
:1068BE0040EF34F042EF34F09EEC2EF024EF34F043
:1068CE0000EF00F0010EB3EC2EF0800EB3EC2EF0C4
:1068DE00F10E0F6E7F0E106E09EC30F0300E511867
:1068EE00D8A47CEF34F07EEF34F089EF34F0C00E94
:1068FE00B3EC2EF0F50E0F6E7E0E106E09EC30F02E
:10690E0092EF34F0C00EB3EC2EF0A60E0F6E7F0E8B
:10691E00106E09EC30F0000E186E000E176E55EC6E
:10692E0038F094EC2EF04050011809E14150021855
:10693E00D8B4A4EF34F0A6EF34F0D9EF34F094ECE1
:10694E002EF001C040F002C041F0C3EF34F0300E23
:10695E005118D8A4B5EF34F0B7EF34F0BBEF34F0E4
:10696E00310E516EBDEF34F0300E516E030E186EB7
:10697E00E80E176ED9EF34F0F2EC30F0156E166AA1
:10698E001650000AD8B4CEEF34F0D9EF34F01550CB
:10699E00530AD8B4AEEF34F0200AD8B4D9EF34F09D
:1069AE00D9EF34F0174A182A18BEE7EF34F0880EE4
:1069BE00175C130E1858D8A0E7EF34F0E9EF34F057
:1069CE0096EF34F01200033404340A6E0A50D8A441
:1069DE00F3EF34F0F5EF34F0FFEF34F0000E016E0C
:1069EE00000E026E000E036E000E046E6CEF35F09C
:1069FE0001C005F002C006F003C007F004C008F0A5
:106A0E00200E0FEF35F0D8900832073206320532DD
:106A1E00E82E0AEF35F00550096E038EFF0E0116B3
:106A2E00FF0E0216FF0E0316000E0416960E0A5ED9
:106A3E000ABE26EF35F024EF35F03CEF35F00A5064
:106A4E00800A970FD8B02EEF35F030EF35F032EFD9
:106A5E0035F0F5EF34F0D8900432033202320132C1
:106A6E000A3E32EF35F054EF35F01F0E0A6442EF56
:106A7E0035F044EF35F04CEF35F0F5EF34F0D890BB
:106A8E0001360236033604360A060A50D8A452EFEF
:106A9E0035F054EF35F046EF35F00950D8B45AEFD3
:106AAE0035F05CEF35F064EF35F0041E031E021E68
:106ABE00016C000E02220322042201C001F002C06A
:106ACE0002F003C003F004C004F01200000E0A6EC0
:106ADE0008BE76EF35F074EF35F080EF35F0081E16
:106AEE00071E061E056C000E062207220822010E46
:106AFE000A6E04BE87EF35F085EF35F091EF35F075
:106B0E00041E031E021E016C000E0222032204222A
:106B1E00010E0A1A000E0B6E000E0C6E000E0D6E9C
:106B2E00000E0E6E0550061007100810D8B4A2EF16
:106B3E0035F0A4EF35F0DAEF35F0010E096EAEEF59
:106B4E0035F0D8900536063607360836092A08AECF
:106B5E00B3EF35F0B5EF35F0A8EF35F0D8900B3632
:106B6E000C360D360E360550015C06500258075095
:106B7E00035808500458D8A0C7EF35F0C9EF35F0C8
:106B8E00D2EF35F00550015E0650025A0750035AF7
:106B9E000850045A0B80D89008320732063205325C
:106BAE00092EB5EF35F00A50D8B4E0EF35F0E2EF2C
:106BBE0035F0EAEF35F00E1E0D1E0C1E0B6C000E9E
:106BCE000C220D220E220BC001F00CC002F00DC0E3
:106BDE0003F00EC004F01200010EB3EC2EF0800E86
:106BEE00B3EC2EF0F80E0F6E7F0E106E09EC30F037
:106BFE00300E5018D8A406EF36F008EF36F013EF2B
:106C0E0036F0C00EB3EC2EF0180E0F6E7F0E106E17
:106C1E0009EC30F01CEF36F0C00EB3EC2EF0C40EC3
:106C2E000F6E7F0E106E09EC30F0000E186E000E17
:106C3E00176E130E026E880E016ED1EC2EF055EC0F
:106C4E0038F094EC2EF04050011809E14150021832
:106C5E00D8B434EF36F036EF36F069EF36F094EC08
:106C6E002EF001C040F002C041F053EF36F0300E6E
:106C7E005018D8A445EF36F047EF36F04BEF36F00C
:106C8E00310E506E4DEF36F0300E506E030E186E04
:106C9E00E80E176E69EF36F0F2EC30F0156E166AEC
:106CAE001650000AD8B45EEF36F069EF36F0155084
:106CBE00530AD8B43EEF36F0200AD8B469EF36F056
:106CCE0069EF36F09EEC2EF0174A182A18BE79EFAF
:106CDE0036F0185009E1640E175CD8A079EF36F043
:106CEE007BEF36F020EF36F01200010EB3EC2EF0F3
:106CFE00800EB3EC2EF0F80E0F6E7F0E106E09ECB8
:106D0E0030F0660E4F18D8A48FEF36F091EF36F0B4
:106D1E009CEF36F0C00EB3EC2EF0880E0F6E7F0E89
:106D2E00106E09EC30F0A5EF36F0C00EB3EC2EF07D
:106D3E00790E0F6E7F0E106E09EC30F0000E186E8D
:106D4E00000E176E130E026E880E016ED1EC2EF031
:106D5E0055EC38F094EC2EF04050011809E14150FA
:106D6E000218D8B4BDEF36F0BFEF36F0F2EF36F0C2
:106D7E0094EC2EF001C040F002C041F0DCEF36F092
:106D8E00660E4F18D8A4CEEF36F0D0EF36F0D4EF13
:106D9E0036F0610E4F6ED6EF36F0660E4F6E030E66
:106DAE00186EE80E176EF2EF36F0F2EC30F0156E4C
:106DBE00166A1650000AD8B4E7EF36F0F2EF36F046
:106DCE001550530AD8B4C7EF36F0200AD8B4F2EFF4
:106DDE0036F0F2EF36F09EEC2EF0174A182A18BE57
:106DEE0002EF37F0185009E1640E175CD8A002EFDD
:106DFE0037F004EF37F0A9EF36F01200000E3D6EBB
:106E0E00000E3C6E000E0E6E000E0D6E0EBE19EFD5
:106E1E0037F00E5009E1050E0D5CD8A019EF37F0D2
:106E2E001BEF37F01DEF37F07EEF37F00DC00AF095
:106E3E00030E0A26010E0B6E000E0C6E0A2A2BEFA5
:106E4E0037F0D8900B360C360A2E28EF37F00BC0E1
:106E5E0007F00CC008F0E2EC2FF0000E026E0A0EE6
:106E6E00016EA0EC37F001500210D8B441EF37F0AC
:106E7E0043EF37F056EF37F00DC00AF0010E0B6EF0
:106E8E00000E0C6E0A2A4FEF37F0D8900B360C36E8
:106E9E000A2E4CEF37F00B503C120C503D12000EE8
:106EAE00026E090E016EA0EC37F001500210D8B43C
:106EBE0063EF37F065EF37F07AEF37F00DC00AF079
:106ECE00050E0A26010E0B6E000E0C6E0A2A73EFCB
:106EDE0037F0D8900B360C360A2E70EF37F00B5079
:106EEE003C120C503D120D4A0E2A0DEF37F03C505D
:106EFE003A1807E13D503B18D8A488EF37F08AEFD7
:106F0E0037F08DEF37F0490693EF37F0010E496EEB
:106F1E003CC03AF03DC03BF04950D8A499EF37F051
:106F2E009BEF37F09FEF37F03AC03EF03BC03FF09B
:106F3E00120002BEAEEF37F0025007E1080E015C00
:106F4E00D8B0ACEF37F0AEEF37F0C2EF37F001C08C
:106F5E0003F0010E046E032AB7EF37F0D890043613
:106F6E00032EB5EF37F004508014056E0550016EF8
:106F7E00026A54EF38F002BED0EF37F0025007E14C
:106F8E00100E015CD8B0CEEF37F0D0EF37F0E6EF51
:106F9E0037F001C003F0F80E0326010E046E032A2B
:106FAE00DBEF37F0D8900436032ED9EF37F00450CC
:106FBE008114056E0550016E026A54EF38F002BE60
:106FCE00F4EF37F0025007E1180E015CD8B0F2EF83
:106FDE0037F0F4EF37F00AEF38F001C003F0F00E9F
:106FEE000326010E046E032AFFEF37F0D890043605
:106FFE00032EFDEF37F004508214056E0550016E1E
:10700E00026A54EF38F002BE18EF38F0025007E172
:10701E00200E015CD8B016EF38F018EF38F02EEFD6
:10702E0038F001C003F0E80E0326010E046E032AA9
:10703E0023EF38F0D8900436032E21EF38F00450A9
:10704E008314056E0550016E026A54EF38F002BECD
:10705E003CEF38F0025007E1280E015CD8B03AEF51
:10706E0038F03CEF38F052EF38F001C003F0E00E8C
:10707E000326010E046E032A47EF38F0D89004362B
:10708E00032E45EF38F004508414056E0550016E42
:10709E00026A54EF38F0016802681200000E026EA8
:1070AE00180E016E000E046E000E036EADEC3AF07B
:1070BE00000E026E190E016E000E046E000E036EAF
:1070CE00ADEC3AF0000E026E1A0E016E000E046E5A
:1070DE00000E036EADEC3AF0000E026E1B0E016E4A
:1070EE00000E046E000E036EADEC3AF0000E086E4C
:1070FE00000E076EE2EC2FF0EDEF38F0DB0E4724BA
:10710E00F66EF76A7E0EF7220800F550076E086AD3
:10711E00E2EC2FF0000E026E180E016E000E046EE1
:10712E00010E036EADEC3AF0010E486E0AEF39F027
:10713E00DB0E4624F66EF76A7E0EF7220800F55037
:10714E00076E086AE2EC2FF0000E026E190E016E49
:10715E00000E046E010E036EADEC3AF0020E486E98
:10716E000AEF39F0DB0E4524F66EF76A7E0EF72233
:10717E000800F550076E086AE2EC2FF0000E026E62
:10718E001A0E016E000E046E010E036EADEC3AF097
:10719E00030E486E0AEF39F0DB0E4424F66EF76AE2
:1071AE007E0EF7220800F550076E086AE2EC2FF00B
:1071BE00000E026E1B0E016E000E046E010E036EAB
:1071CE00ADEC3AF0000E486E0AEF39F048500A6EF8
:1071DE000B6A0B50000AD8B4F7EF38F0E9EF38F02D
:1071EE000A50000AD8B485EF38F0010AD8B49FEFE0
:1071FE0038F0030AD8B4B9EF38F0010AD8B4D3EF97
:10720E0038F0E9EF38F01200010EB3EC2EF0800EDC
:10721E00B3EC2EF0970E0F6E7F0E106E09EC30F061
:10722E00000E1A6E000E196E130E026E880E016E8F
:10723E00D1EC2EF055EC38F094EC2EF040500118B5
:10724E0009E141500218D8B42FEF39F031EF39F07F
:10725E00C9EF39F094EC2EF001C040F002C041F0BD
:10726E00A7EF39F015501610D8A440EF39F042EFC1
:10727E0039F050EF39F0400E2A242A6E7E0E2B2064
:10728E002B6E050E2C202C6E000E2D202D6E5CEF1D
:10729E0039F0700E2A242A6E170E2B202B6E000E3C
:1072AE002C202C6E000E2D202D6E030E1A6EE80E65
:1072BE00196EC9EF39F015501610D8A469EF39F0D0
:1072CE006BEF39F079EF39F0C00E2A242A6E810E59
:1072DE002B202B6EFA0E2C202C6EFF0E2D202D6ED9
:1072EE005CEF39F0900E2A242A6EE80E2B202B6EBE
:1072FE00FF0E2C202C6EFF0E2D202D6E5CEF39F024
:10730E0015041610D8A48EEF39F090EF39F096EFE1
:10731E0039F0000E166E000E156EC9EF39F0000E24
:10732E00166E010E156EC9EF39F015041610D8A49D
:10733E00A3EF39F0A5EF39F096EF39F090EF39F071
:10734E00F2EC30F0176E186A1850000AD8B4B2EF8B
:10735E0039F0C9EF39F01750410AD8B49CEF39F023
:10736E00030AD8B462EF39F01A0AD8B439EF39F0FB
:10737E00010AD8B487EF39F02A0AD8B4C9EF39F028
:10738E00C9EF39F09EEC2EF0194A1A2A1ABED9EF1F
:10739E0039F01A5009E1640E195CD8A0D9EF39F012
:1073AE00DBEF39F01BEF39F01200010EB3EC2EF0CB
:1073BE00800EB3EC2EF0970E0F6E7F0E106E09EC52
:1073CE0030F0000E1A6E000E196E130E026E880E3D
:1073DE00016ED1EC2EF055EC38F094EC2EF04050BE
:1073EE00011809E141500218D8B400EF3AF002EF4B
:1073FE003AF09AEF3AF094EC2EF001C040F002C051
:10740E0041F078EF3AF015501610D8A411EF3AF07B
:10741E0013EF3AF021EF3AF0400E4A244A6E7E0EF8
:10742E004B204B6E050E4C204C6E000E4D204D6EBB
:10743E002DEF3AF0700E4A244A6E170E4B204B6E0B
:10744E00000E4C204C6E000E4D204D6E030E1A6E2B
:10745E00E80E196E9AEF3AF015501610D8A43AEFBE
:10746E003AF03CEF3AF04AEF3AF0C00E4A244A6E38
:10747E00810E4B204B6EFA0E4C204C6EFF0E4D20A3
:10748E004D6E2DEF3AF0900E4A244A6EE80E4B20C8
:10749E004B6EFF0E4C204C6EFF0E4D204D6E2DEFA1
:1074AE003AF015041610D8A45FEF3AF061EF3AF0F7
:1074BE0067EF3AF0000E166E000E156E9AEF3AF068
:1074CE00000E166E010E156E9AEF3AF01504161098
:1074DE00D8A474EF3AF076EF3AF067EF3AF061EF36
:1074EE003AF0F2EC30F0176E186A1850000AD8B461
:1074FE0083EF3AF09AEF3AF01750410AD8B46DEF95
:10750E003AF0030AD8B433EF3AF01A0AD8B40AEFB5
:10751E003AF0010AD8B458EF3AF02A0AD8B49AEFE2
:10752E003AF09AEF3AF09EEC2EF0194A1A2A1ABE49
:10753E00AAEF3AF01A5009E1640E195CD8A0AAEF2E
:10754E003AF0ACEF3AF0ECEF39F0120002BEBBEFBE
:10755E003AF0025007E1080E015CD8B0B9EF3AF0EC
:10756E00BBEF3AF0E5EF3AF003500410D8B4C2EF97
:10757E003AF0C4EF3AF0D4EF3AF001C005F0010E44
:10758E00066E052ACDEF3AF0D8900636052ECBEFD3
:10759E003AF006508012D3EF3BF001C005F0010E19
:1075AE00066E052ADDEF3AF0D8900636052EDBEF93
:1075BE003AF00650FF0A8016D3EF3BF002BEF3EF0F
:1075CE003AF0025007E1100E015CD8B0F1EF3AF03C
:1075DE00F3EF3AF021EF3BF0F80E0126FF0E0222F8
:1075EE0003500410D8B4FEEF3AF000EF3BF010EF6A
:1075FE003BF001C005F0010E066E052A09EF3BF0C7
:10760E00D8900636052E07EF3BF006508112D3EFC9
:10761E003BF001C005F0010E066E052A19EF3BF096
:10762E00D8900636052E17EF3BF00650FF0A81164E
:10763E00D3EF3BF002BE2FEF3BF0025007E1180EE6
:10764E00015CD8B02DEF3BF02FEF3BF05DEF3BF040
:10765E00F00E0126FF0E022203500410D8B43AEFAA
:10766E003BF03CEF3BF04CEF3BF001C005F0010E60
:10767E00066E052A45EF3BF0D8900636052E43EFF1
:10768E003BF006508212D3EF3BF001C005F0010E25
:10769E00066E052A55EF3BF0D8900636052E53EFB1
:1076AE003BF00650FF0A8216D3EF3BF002BE6BEFA3
:1076BE003BF0025007E1200E015CD8B069EF3BF0C1
:1076CE006BEF3BF099EF3BF0E80E0126FF0E022226
:1076DE0003500410D8B476EF3BF078EF3BF088EF10
:1076EE003BF001C005F0010E066E052A81EF3BF05E
:1076FE00D8900636052E7FEF3BF006508312D3EF5F
:10770E003BF001C005F0010E066E052A91EF3BF02D
:10771E00D8900636052E8FEF3BF00650FF0A8316E3
:10772E00D3EF3BF002BEA7EF3BF0025007E1280E6D
:10773E00015CD8B0A5EF3BF0A7EF3BF0D3EF3BF0E9
:10774E00E00E0126FF0E022203500410D8B4B2EF51
:10775E003BF0B4EF3BF0C4EF3BF001C005F0010E7F
:10776E00066E052ABDEF3BF0D8900636052EBBEF10
:10777E003BF006508412D3EF3BF001C005F0010E32
:10778E00066E052ACDEF3BF0D8900636052ECBEFD0
:10779E003BF00650FF0A8416120002BEE2EF3BF0E9
:1077AE00025007E1080E015CD8B0E0EF3BF0E2EFCB
:1077BE003BF00CEF3CF003500410D8B4E9EF3BF073
:1077CE00EBEF3BF0FBEF3BF001C005F0010E066E58
:1077DE00052AF4EF3BF0D8900636052EF2EF3BF07B
:1077EE0006509212FAEF3CF001C005F0010E066E43
:1077FE00052A04EF3CF0D8900636052E02EF3CF039
:10780E000650FF0A9216FAEF3CF002BE1AEF3CF059
:10781E00025007E1100E015CD8B018EF3CF01AEFE1
:10782E003CF048EF3CF003500410D8B421EF3CF08C
:10783E0023EF3CF035EF3CF001C005F0F80E0526C5
:10784E00010E066E052A2EEF3CF0D8900636052E58
:10785E002CEF3CF006509312FAEF3CF001C005F00D
:10786E00F80E0526010E066E052A40EF3CF0D89064
:10787E000636052E3EEF3CF00650FF0A9316FAEF41
:10788E003CF002BE56EF3CF0025007E1180E015CD0
:10789E00D8B054EF3CF056EF3CF084EF3CF0035080
:1078AE000410D8B45DEF3CF05FEF3CF071EF3CF0AC
:1078BE0001C005F0F00E0526010E066E052A6AEFD0
:1078CE003CF0D8900636052E68EF3CF00650941228
:1078DE00FAEF3CF001C005F0F00E0526010E066E23
:1078EE00052A7CEF3CF0D8900636052E7AEF3CF058
:1078FE000650FF0A9416FAEF3CF002BE92EF3CF0EF
:10790E00025007E1200E015CD8B090EF3CF092EFF0
:10791E003CF0C0EF3CF003500410D8B499EF3CF0AB
:10792E009BEF3CF0ADEF3CF001C005F0E80E0526F4
:10793E00010E066E052AA6EF3CF0D8900636052EEF
:10794E00A4EF3CF006509512FAEF3CF001C005F0A2
:10795E00E80E0526010E066E052AB8EF3CF0D8900B
:10796E000636052EB6EF3CF00650FF0A9516FAEFD6
:10797E003CF002BECEEF3CF0025007E1280E015C57
:10798E00D8B0CCEF3CF0CEEF3CF0FAEF3CF0035029
:10799E000410D8B4D5EF3CF0D7EF3CF0E9EF3CF053
:1079AE0001C005F0E00E0526010E066E052AE2EF77
:1079BE003CF0D8900636052EE0EF3CF006509612BD
:1079CE00FAEF3CF001C005F0E00E0526010E066E42
:1079DE00052AF4EF3CF0D8900636052EF2EF3CF077
:1079EE000650FF0A96161200000E246E000E236E2D
:1079FE00800EB3EC2EF0070E0F6E7F0E106E09EC9C
:107A0E0030F0000E226E000E216EC30E026E500E6E
:107A1E00016ED1EC2EF055EC38F094EC2EF0405077
:107A2E00011809E141500218D8B420EF3DF022EFC1
:107A3E003DF014EF3EF0F6EF3DF023502410D8A4A5
:107A4E002BEF3DF02DEF3DF033EF3DF0000E246EA9
:107A5E00040E236E36EF3DF02306D8A02406C00E8A
:107A6E00B3EC2EF063EF3DF0590E0F6E7F0E106EDD
:107A7E0009EC30F085EF3DF0690E0F6E7F0E106E43
:107A8E0009EC30F085EF3DF0490E0F6E7F0E106E53
:107A9E0009EC30F085EF3DF0390E0F6E7F0E106E53
:107AAE0009EC30F085EF3DF0290E0F6E7F0E106E53
:107ABE0009EC30F085EF3DF023C01FF024C020F01C
:107ACE002050000AD8B46EEF3DF085EF3DF01F5008
:107ADE00000AD8B43BEF3DF0010AD8B443EF3DF0B5
:107AEE00030AD8B44BEF3DF0010AD8B453EF3DF082
:107AFE00070AD8B45BEF3DF085EF3DF0040E231876
:107B0E002410D8A48DEF3DF08FEF3DF095EF3DF0B2
:107B1E00000E246E000E236E97EF3DF0234A242AAA
:107B2E00C00EB3EC2EF0000E226E000E216EC8EFCA
:107B3E003DF0590E0F6E7F0E106E09EC30F014EF03
:107B4E003EF0690E0F6E7F0E106E09EC30F014EFE2
:107B5E003EF0490E0F6E7F0E106E09EC30F014EFF2
:107B6E003EF0390E0F6E7F0E106E09EC30F014EFF2
:107B7E003EF0290E0F6E7F0E106E09EC30F014EFF2
:107B8E003EF023C01FF024C020F02050000AD8B4CD
:107B9E00D3EF3DF014EF3EF01F50000AD8B4A0EF23
:107BAE003DF0010AD8B4A8EF3DF0030AD8B4B0EF07
:107BBE003DF0010AD8B4B8EF3DF0070AD8B4C0EFD3
:107BCE003DF014EF3EF023C01BF024C01CF06CEC13
:107BDE0031F0000E226E000E216E14EF3EF0F2EC2C
:107BEE0030F01F6E206A2050000AD8B401EF3EF02C
:107BFE0014EF3EF01F50420AD8B485EF3DF0110A43
:107C0E00D8B4EAEF3DF00B0AD8B424EF3DF02B0ABE
:107C1E00D8B414EF3EF014EF3EF09EEC2EF0214A55
:107C2E00222A22BE24EF3EF0E80E215C030E2258DB
:107C3E00D8A024EF3EF026EF3EF00CEF3DF0120000
:107C4E00010EB3EC2EF02EC001F02FC002F030C0AA
:107C5E0003F031C004F036C005F037C006F038C06E
:107C6E0007F039C008F043EC32F0D8A041EF3EF0F7
:107C7E0043EF3EF045EF3EF090EF3EF0660E4F18AC
:107C8E00D8A44CEF3EF04EEF3EF06CEF3EF0800E7F
:107C9E00B3EC2EF0E80E0F6E7F0E106E09EC30F086
:107CAE00C00EB3EC2EF036C001F037C002F038C073
:107CBE0003F039C004F0EAEC34F001C00FF002C05A
:107CCE0010F0B8EC30F088EF3EF0800EB3EC2EF0F2
:107CDE00DF0E0F6E7F0E106E09EC30F0C00EB3EC9F
:107CEE002EF032C001F033C002F034C003F035C0C4
:107CFE0004F0EAEC34F001C00FF002C010F0B8EC62
:107D0E0030F036C02EF037C02FF038C030F039C00A
:107D1E0031F0180E126E000E136E000E146E000E61
:107D2E00156E400E056E7E0E066E050E076E000E6B
:107D3E00086E4AC001F04BC002F04CC003F04DC0BB
:107D4E0004F0F1EC31F001C00EF002C00FF003C0F0
:107D5E0010F004C011F0ADEC31F00EC019F00FC0F0
:107D6E001AF010C01BF011C01CF0010E176E19C0D6
:107D7E0001F01AC002F01BC003F01CC004F00A0E82
:107D8E00056E000E066E000E076E000E086EF1EC0C
:107D9E0031F00150300F5FEC30F0180E126E000E05
:107DAE00136E000E146E000E156E400E056E7E0ED6
:107DBE00066E050E076E000E086E4AC001F04BC02F
:107DCE0002F04CC003F04DC004F0F1EC31F001C0F4
:107DDE000EF002C00FF003C010F004C011F0ADECB5
:107DEE0031F00EC01DF00FC01EF010C01FF011C0FC
:107DFE0020F0020E176E1DC00EF01EC00FF01FC039
:107E0E0010F020C011F00A0E126E000E136E000E4E
:107E1E00146E000E156EADEC31F00E50300F5FEC9F
:107E2E0030F0030E176E600E056EEA0E066E000E33
:107E3E00076E000E086E4AC001F04BC002F04CC037
:107E4E0003F04DC004F0F1EC31F001C00EF002C0B1
:107E5E000FF003C010F004C011F0060E126E000EEB
:107E6E00136E000E146E000E156EADEC31F00E504A
:107E7E00300F5FEC30F0040E176E700E056E170E9D
:107E8E00066E000E076E000E086E4AC001F04BC063
:107E9E0002F04CC003F04DC004F0F1EC31F001C023
:107EAE000EF002C00FF003C010F004C011F00A0E65
:107EBE00126E000E136E000E146E000E156EADECEB
:107ECE0031F00E50300F5FEC30F01200003F065BC9
:107EDE004F666D7D077F6F777C395E7971554C44A7
:107EEE0052535841425973416C61726D653A206428
:107EFE0065736C696761646F004D656E7520202037
:107F0E0020202020202020202000526164696F3A1A
:107F1E00206465736C696761646F004D756461728E
:107F2E0020686F7261202020202000467265712E1D
:107F3E0020726164696F202020200041746976618F
:107F4E007220726164696F2020200041746976612D
:107F5E007220616C61726D65202000486F726172D3
:107F6E00696F20616C61726D652000467265717576
:107F7E00656E6369613A20414D00467265717565A3
:107F8E006E6369613A20464D00686F726120646FBE
:107F9E0020616C61726D6500416C61726D653A2095
:107FAE006C696761646F00416C61726D6520746FFE
:107FBE0063616E646F00526164696F3A206C696729
:107FCE0061646F007072657373696F6E65207320E4
:107FDE0000526164696F20414D00526164696F20E7
:107FEE00464D00416C61726D6500526164696F00AF
:017FFE000082
:020000040020DA
:08000000FFFFFFFFFFFFFFFF00
:020000040030CA
:0E000000FF027100FF8380FF0FC00FE00F4072
:00000001FF
